{
  "_format": "hh-sol-artifact-1",
  "contractName": "Token",
  "sourceName": "Contracts/Token.sol",
  "abi": [
    {
      "inputs": [],
      "name": "accountBalance",
      "outputs": [
        {
          "internalType": "uint256",
          "name": "",
          "type": "uint256"
        }
      ],
      "stateMutability": "view",
      "type": "function"
    },
    {
      "inputs": [
        {
          "internalType": "address payable",
          "name": "reciever",
          "type": "address"
        }
      ],
      "name": "transferEther",
      "outputs": [],
      "stateMutability": "payable",
      "type": "function"
    }
  ],
  "bytecode": "0x608060405234801561001057600080fd5b5061070c806100206000396000f3fe6080604052600436106100295760003560e01c80636b55e9911461002e578063b0a1c1c41461004a575b600080fd5b61004860048036038101906100439190610390565b610075565b005b34801561005657600080fd5b5061005f6102a0565b60405161006c91906103d6565b60405180910390f35b600073ffffffffffffffffffffffffffffffffffffffff163373ffffffffffffffffffffffffffffffffffffffff16036100e4576040517f08c379a00000000000000000000000000000000000000000000000000000000081526004016100db90610474565b60405180910390fd5b600073ffffffffffffffffffffffffffffffffffffffff168173ffffffffffffffffffffffffffffffffffffffff1603610153576040517f08c379a000000000000000000000000000000000000000000000000000000000815260040161014a906104e0565b60405180910390fd5b60003411610196576040517f08c379a000000000000000000000000000000000000000000000000000000000815260040161018d90610572565b60405180910390fd5b3373ffffffffffffffffffffffffffffffffffffffff16313411156101f0576040517f08c379a00000000000000000000000000000000000000000000000000000000081526004016101e790610604565b60405180910390fd5b60008173ffffffffffffffffffffffffffffffffffffffff163460405161021690610655565b60006040518083038185875af1925050503d8060008114610253576040519150601f19603f3d011682016040523d82523d6000602084013e610258565b606091505b505090508061029c576040517f08c379a0000000000000000000000000000000000000000000000000000000008152600401610293906106b6565b60405180910390fd5b5050565b60008073ffffffffffffffffffffffffffffffffffffffff163373ffffffffffffffffffffffffffffffffffffffff1603610310576040517f08c379a000000000000000000000000000000000000000000000000000000000815260040161030790610474565b60405180910390fd5b3373ffffffffffffffffffffffffffffffffffffffff1631905090565b600080fd5b600073ffffffffffffffffffffffffffffffffffffffff82169050919050565b600061035d82610332565b9050919050565b61036d81610352565b811461037857600080fd5b50565b60008135905061038a81610364565b92915050565b6000602082840312156103a6576103a561032d565b5b60006103b48482850161037b565b91505092915050565b6000819050919050565b6103d0816103bd565b82525050565b60006020820190506103eb60008301846103c7565b92915050565b600082825260208201905092915050565b7f43757272656e746c79206e6f7420636f6e6e656374656420746f20616e79206160008201527f63636f756e742e00000000000000000000000000000000000000000000000000602082015250565b600061045e6027836103f1565b915061046982610402565b604082019050919050565b6000602082019050818103600083015261048d81610451565b9050919050565b7f526563656976657220646f65736e27742065786973742e000000000000000000600082015250565b60006104ca6017836103f1565b91506104d582610494565b602082019050919050565b600060208201905081810360008301526104f9816104bd565b9050919050565b7f5472616e7366657220616d6f756e742073686f756c642062652067726174657260008201527f207468616e20302e000000000000000000000000000000000000000000000000602082015250565b600061055c6028836103f1565b915061056782610500565b604082019050919050565b6000602082019050818103600083015261058b8161054f565b9050919050565b7f53656e64657220646f65736e2774206861766520656e6f7567682062616c616e60008201527f63652e0000000000000000000000000000000000000000000000000000000000602082015250565b60006105ee6023836103f1565b91506105f982610592565b604082019050919050565b6000602082019050818103600083015261061d816105e1565b9050919050565b600081905092915050565b50565b600061063f600083610624565b915061064a8261062f565b600082019050919050565b600061066082610632565b9150819050919050565b7f4661696c656420746f2073656e64204574686572000000000000000000000000600082015250565b60006106a06014836103f1565b91506106ab8261066a565b602082019050919050565b600060208201905081810360008301526106cf81610693565b905091905056fea264697066735822122061e5777f2b2a6bddba476477f651716edb211986cfdc552ba09f1121e86cfc4064736f6c63430008120033",
  "linkReferences": {},
  "deployedLinkReferences": {}
}